{
  "_format": "hh-sol-artifact-1",
  "contractName": "Staking",
  "sourceName": "contracts/Staking.sol",
  "abi": [
    {
      "inputs": [
        {
          "internalType": "address",
          "name": "_whiteListedContract",
          "type": "address"
        },
        {
          "internalType": "uint256",
          "name": "_rewardSpeed",
          "type": "uint256"
        },
        {
          "internalType": "address",
          "name": "_owner",
          "type": "address"
        }
      ],
      "stateMutability": "nonpayable",
      "type": "constructor"
    },
    {
      "anonymous": false,
      "inputs": [
        {
          "indexed": false,
          "internalType": "address",
          "name": "_user",
          "type": "address"
        },
        {
          "indexed": false,
          "internalType": "uint256",
          "name": "_amount",
          "type": "uint256"
        }
      ],
      "name": "Claim",
      "type": "event"
    },
    {
      "anonymous": false,
      "inputs": [
        {
          "indexed": false,
          "internalType": "address",
          "name": "_user",
          "type": "address"
        },
        {
          "indexed": false,
          "internalType": "uint256",
          "name": "_tokenId",
          "type": "uint256"
        }
      ],
      "name": "Stake",
      "type": "event"
    },
    {
      "anonymous": false,
      "inputs": [
        {
          "indexed": false,
          "internalType": "address",
          "name": "_user",
          "type": "address"
        },
        {
          "indexed": false,
          "internalType": "uint256",
          "name": "_tokenId",
          "type": "uint256"
        }
      ],
      "name": "Unstake",
      "type": "event"
    },
    {
      "inputs": [],
      "name": "CHAMPS",
      "outputs": [
        {
          "internalType": "contract ERC721",
          "name": "",
          "type": "address"
        }
      ],
      "stateMutability": "view",
      "type": "function"
    },
    {
      "inputs": [],
      "name": "ammo",
      "outputs": [
        {
          "internalType": "contract AMMO",
          "name": "",
          "type": "address"
        }
      ],
      "stateMutability": "view",
      "type": "function"
    },
    {
      "inputs": [],
      "name": "checkToClaim",
      "outputs": [
        {
          "internalType": "uint256",
          "name": "",
          "type": "uint256"
        }
      ],
      "stateMutability": "view",
      "type": "function"
    },
    {
      "inputs": [],
      "name": "claim",
      "outputs": [],
      "stateMutability": "nonpayable",
      "type": "function"
    },
    {
      "inputs": [
        {
          "internalType": "address",
          "name": "operator",
          "type": "address"
        },
        {
          "internalType": "address",
          "name": "from",
          "type": "address"
        },
        {
          "internalType": "uint256",
          "name": "tokenId",
          "type": "uint256"
        },
        {
          "internalType": "bytes",
          "name": "data",
          "type": "bytes"
        }
      ],
      "name": "onERC721Received",
      "outputs": [
        {
          "internalType": "bytes4",
          "name": "",
          "type": "bytes4"
        }
      ],
      "stateMutability": "nonpayable",
      "type": "function"
    },
    {
      "inputs": [
        {
          "internalType": "uint256",
          "name": "_tokenId",
          "type": "uint256"
        }
      ],
      "name": "ownerOf",
      "outputs": [
        {
          "internalType": "address",
          "name": "",
          "type": "address"
        }
      ],
      "stateMutability": "view",
      "type": "function"
    },
    {
      "inputs": [
        {
          "internalType": "address",
          "name": "_contractAddress",
          "type": "address"
        }
      ],
      "name": "setERC20",
      "outputs": [],
      "stateMutability": "nonpayable",
      "type": "function"
    },
    {
      "inputs": [
        {
          "internalType": "address",
          "name": "",
          "type": "address"
        }
      ],
      "name": "stakingInfo",
      "outputs": [
        {
          "internalType": "uint256",
          "name": "stakedNftNum",
          "type": "uint256"
        },
        {
          "internalType": "uint256",
          "name": "multiplier",
          "type": "uint256"
        },
        {
          "internalType": "uint256",
          "name": "claimed",
          "type": "uint256"
        },
        {
          "internalType": "uint256",
          "name": "lastClaim",
          "type": "uint256"
        }
      ],
      "stateMutability": "view",
      "type": "function"
    },
    {
      "inputs": [
        {
          "internalType": "uint256",
          "name": "_index",
          "type": "uint256"
        },
        {
          "internalType": "address",
          "name": "_user",
          "type": "address"
        }
      ],
      "name": "tokenIdByIndex",
      "outputs": [
        {
          "internalType": "uint256",
          "name": "",
          "type": "uint256"
        }
      ],
      "stateMutability": "view",
      "type": "function"
    },
    {
      "inputs": [
        {
          "internalType": "uint256",
          "name": "_index",
          "type": "uint256"
        }
      ],
      "name": "unstake",
      "outputs": [],
      "stateMutability": "nonpayable",
      "type": "function"
    },
    {
      "inputs": [
        {
          "internalType": "uint256",
          "name": "_rewardSpeed",
          "type": "uint256"
        }
      ],
      "name": "updateRewardSpeed",
      "outputs": [],
      "stateMutability": "nonpayable",
      "type": "function"
    },
    {
      "inputs": [],
      "name": "whiteListedContract",
      "outputs": [
        {
          "internalType": "address",
          "name": "",
          "type": "address"
        }
      ],
      "stateMutability": "view",
      "type": "function"
    }
  ],
  "bytecode": "0x608060405234801561001057600080fd5b50604051610b5c380380610b5c83398101604081905261002f91610091565b600280546001600160a01b039283166001600160a01b031991821617909155600180549490921693811684179091556000919091556005805490911690911790556100cd565b80516001600160a01b038116811461008c57600080fd5b919050565b6000806000606084860312156100a657600080fd5b6100af84610075565b9250602084015191506100c460408501610075565b90509250925092565b610a80806100dc6000396000f3fe608060405234801561001057600080fd5b50600436106100b45760003560e01c8063852ea4d411610071578063852ea4d4146101a057806394eecb50146101a8578063ac7ed874146101ff578063c29a6fda14610212578063dc11e12f14610225578063ded611221461023857600080fd5b80630ad1f3ba146100b9578063150b7a02146100e95780632e17de78146101155780632fbcedd21461012a5780634e71d92d1461016f5780636352211e14610177575b600080fd5b6005546100cc906001600160a01b031681565b6040516001600160a01b0390911681526020015b60405180910390f35b6100fc6100f73660046108c2565b61024b565b6040516001600160e01b031990911681526020016100e0565b61012861012336600461095d565b6102c2565b005b610161610138366004610976565b6001600160a01b0316600090815260036020908152604080832093835260049093019052205490565b6040519081526020016100e0565b6101286104b5565b6100cc61018536600461095d565b6000908152600460205260409020546001600160a01b031690565b6101616104c0565b6101df6101b63660046109a2565b600360208190526000918252604090912080546001820154600283015492909301549092919084565b6040805194855260208501939093529183015260608201526080016100e0565b61012861020d36600461095d565b6104d0565b6101286102203660046109a2565b610525565b6001546100cc906001600160a01b031681565b6006546100cc906001600160a01b031681565b6001546000906001600160a01b031633146102a65760405162461bcd60e51b815260206004820152601660248201527577726f6e6720636f6e7472616374206164647265737360501b60448201526064015b60405180910390fd5b6102b084866105e2565b50630a85bd0160e11b95945050505050565b336000818152600360209081526040808320858452600490810183528184205480855292529091205490916001600160a01b039091161461033b5760405162461bcd60e51b81526020600482015260136024820152721b9bdd081bdddb995c881bdc881cdd185ad959606a1b604482015260640161029d565b3360008181526003602052604090209061035490610744565b80546001106103775733600090815260036020526040812060010181905561039e565b600b816001015461038891906109da565b3360009081526003602052604090206001018190555b5080546103ad906001906109da565b336000818152600360209081526040808320858155948352600480860183528184205489855282852055945483528083208390558683529084905280822080546001600160a01b03191690556005548151632142170760e11b81523095810195909552602485019390935260448401869052516001600160a01b03909216926342842e0e926064808301939282900301818387803b15801561044e57600080fd5b505af1158015610462573d6000803e3d6000fd5b505050507f85082129d87b2fe11527cb1b3b7a520aeb5aa6913f88a3d8757fe40d1db02fdd61048e3390565b604080516001600160a01b03909216825260208201859052015b60405180910390a1505050565b6104be33610744565b565b60006104cb3361083b565b905090565b6002546001600160a01b0316336001600160a01b0316146105205760405162461bcd60e51b815260206004820152600a60248201526937b7363c9037bbb732b960b11b604482015260640161029d565b600055565b6002546001600160a01b0316336001600160a01b0316146105755760405162461bcd60e51b815260206004820152600a60248201526937b7363c9037bbb732b960b11b604482015260640161029d565b6001600160a01b0381163b6105c05760405162461bcd60e51b81526020600482015260116024820152701a5cc81b9bdd08184818dbdb9d1c9858dd607a1b604482015260640161029d565b600680546001600160a01b0319166001600160a01b0392909216919091179055565b6001546001600160a01b031633146106315760405162461bcd60e51b81526020600482015260126024820152716261736520636f6e7472616374206f6e6c7960701b604482015260640161029d565b6001600160a01b03811660009081526003602052604090208054156106595761065982610744565b6001600160a01b038216600090815260036020819052604090912042910155805461068581600a6109f1565b61068f9190610a10565b61069a90600a610a10565b6001600160a01b038316600090815260036020908152604080832060018082019590955580548452600401909152902084905581546106d891610a10565b6001600160a01b038316600081815260036020908152604080832094909455868252600481529083902080546001600160a01b03191683179055825191825281018590527febedb8b3c678666e7f36970bc8f57abf6d8fa2e828c0da91ea5b75bf68ed101a91016104a8565b600061074f8261083b565b6001600160a01b03831660009081526003602081905260408220429181019190915560020180549293508392909190610789908490610a10565b90915550506006546040516340c10f1960e01b81526001600160a01b03848116600483015260248201849052909116906340c10f1990604401600060405180830381600087803b1580156107dc57600080fd5b505af11580156107f0573d6000803e3d6000fd5b5050604080516001600160a01b0386168152602081018590527f47cee97cb7acd717b3c0aa1435d004cd5b3c8c57d70dbceb4e4458bbd60e39d4935001905060405180910390a15050565b6001600160a01b03811660009081526003602052604081208154600182015483919061086990600a90610a28565b600384015461087890426109da565b61088a90670de0b6b3a76400006109f1565b61089491906109f1565b61089e9190610a28565b949350505050565b80356001600160a01b03811681146108bd57600080fd5b919050565b6000806000806000608086880312156108da57600080fd5b6108e3866108a6565b94506108f1602087016108a6565b935060408601359250606086013567ffffffffffffffff8082111561091557600080fd5b818801915088601f83011261092957600080fd5b81358181111561093857600080fd5b89602082850101111561094a57600080fd5b9699959850939650602001949392505050565b60006020828403121561096f57600080fd5b5035919050565b6000806040838503121561098957600080fd5b82359150610999602084016108a6565b90509250929050565b6000602082840312156109b457600080fd5b6109bd826108a6565b9392505050565b634e487b7160e01b600052601160045260246000fd5b6000828210156109ec576109ec6109c4565b500390565b6000816000190483118215151615610a0b57610a0b6109c4565b500290565b60008219821115610a2357610a236109c4565b500190565b600082610a4557634e487b7160e01b600052601260045260246000fd5b50049056fea2646970667358221220dc7036a70556cae8c7c5d70bfa2f7be0760120ebd126b74c2409d0cd99af6fc364736f6c63430008090033",
  "linkReferences": {},
  "deployedLinkReferences": {}
}