{
  "_format": "hh-sol-artifact-1",
  "contractName": "AMMO",
  "sourceName": "contracts/AMMO.sol",
  "abi": [
    {
      "inputs": [
        {
          "internalType": "address",
          "name": "_stakingContract",
          "type": "address"
        },
        {
          "internalType": "address",
          "name": "_owner",
          "type": "address"
        }
      ],
      "stateMutability": "nonpayable",
      "type": "constructor"
    },
    {
      "anonymous": false,
      "inputs": [
        {
          "indexed": true,
          "internalType": "address",
          "name": "owner",
          "type": "address"
        },
        {
          "indexed": true,
          "internalType": "address",
          "name": "spender",
          "type": "address"
        },
        {
          "indexed": false,
          "internalType": "uint256",
          "name": "value",
          "type": "uint256"
        }
      ],
      "name": "Approval",
      "type": "event"
    },
    {
      "anonymous": false,
      "inputs": [
        {
          "indexed": true,
          "internalType": "address",
          "name": "from",
          "type": "address"
        },
        {
          "indexed": true,
          "internalType": "address",
          "name": "to",
          "type": "address"
        },
        {
          "indexed": false,
          "internalType": "uint256",
          "name": "value",
          "type": "uint256"
        }
      ],
      "name": "Transfer",
      "type": "event"
    },
    {
      "inputs": [
        {
          "internalType": "address",
          "name": "owner",
          "type": "address"
        },
        {
          "internalType": "address",
          "name": "spender",
          "type": "address"
        }
      ],
      "name": "allowance",
      "outputs": [
        {
          "internalType": "uint256",
          "name": "",
          "type": "uint256"
        }
      ],
      "stateMutability": "view",
      "type": "function"
    },
    {
      "inputs": [
        {
          "internalType": "address",
          "name": "spender",
          "type": "address"
        },
        {
          "internalType": "uint256",
          "name": "amount",
          "type": "uint256"
        }
      ],
      "name": "approve",
      "outputs": [
        {
          "internalType": "bool",
          "name": "",
          "type": "bool"
        }
      ],
      "stateMutability": "nonpayable",
      "type": "function"
    },
    {
      "inputs": [
        {
          "internalType": "address",
          "name": "account",
          "type": "address"
        }
      ],
      "name": "balanceOf",
      "outputs": [
        {
          "internalType": "uint256",
          "name": "",
          "type": "uint256"
        }
      ],
      "stateMutability": "view",
      "type": "function"
    },
    {
      "inputs": [
        {
          "internalType": "uint256",
          "name": "_amount",
          "type": "uint256"
        }
      ],
      "name": "burn",
      "outputs": [],
      "stateMutability": "nonpayable",
      "type": "function"
    },
    {
      "inputs": [],
      "name": "decimals",
      "outputs": [
        {
          "internalType": "uint8",
          "name": "",
          "type": "uint8"
        }
      ],
      "stateMutability": "view",
      "type": "function"
    },
    {
      "inputs": [
        {
          "internalType": "address",
          "name": "spender",
          "type": "address"
        },
        {
          "internalType": "uint256",
          "name": "subtractedValue",
          "type": "uint256"
        }
      ],
      "name": "decreaseAllowance",
      "outputs": [
        {
          "internalType": "bool",
          "name": "",
          "type": "bool"
        }
      ],
      "stateMutability": "nonpayable",
      "type": "function"
    },
    {
      "inputs": [
        {
          "internalType": "address",
          "name": "spender",
          "type": "address"
        },
        {
          "internalType": "uint256",
          "name": "addedValue",
          "type": "uint256"
        }
      ],
      "name": "increaseAllowance",
      "outputs": [
        {
          "internalType": "bool",
          "name": "",
          "type": "bool"
        }
      ],
      "stateMutability": "nonpayable",
      "type": "function"
    },
    {
      "inputs": [
        {
          "internalType": "address",
          "name": "_from",
          "type": "address"
        },
        {
          "internalType": "uint256",
          "name": "_amount",
          "type": "uint256"
        }
      ],
      "name": "mint",
      "outputs": [],
      "stateMutability": "nonpayable",
      "type": "function"
    },
    {
      "inputs": [],
      "name": "name",
      "outputs": [
        {
          "internalType": "string",
          "name": "",
          "type": "string"
        }
      ],
      "stateMutability": "view",
      "type": "function"
    },
    {
      "inputs": [],
      "name": "owner",
      "outputs": [
        {
          "internalType": "address",
          "name": "",
          "type": "address"
        }
      ],
      "stateMutability": "view",
      "type": "function"
    },
    {
      "inputs": [],
      "name": "stakingContract",
      "outputs": [
        {
          "internalType": "address",
          "name": "",
          "type": "address"
        }
      ],
      "stateMutability": "view",
      "type": "function"
    },
    {
      "inputs": [
        {
          "internalType": "bytes4",
          "name": "interfaceId",
          "type": "bytes4"
        }
      ],
      "name": "supportsInterface",
      "outputs": [
        {
          "internalType": "bool",
          "name": "",
          "type": "bool"
        }
      ],
      "stateMutability": "view",
      "type": "function"
    },
    {
      "inputs": [],
      "name": "symbol",
      "outputs": [
        {
          "internalType": "string",
          "name": "",
          "type": "string"
        }
      ],
      "stateMutability": "view",
      "type": "function"
    },
    {
      "inputs": [],
      "name": "totalSupply",
      "outputs": [
        {
          "internalType": "uint256",
          "name": "",
          "type": "uint256"
        }
      ],
      "stateMutability": "view",
      "type": "function"
    },
    {
      "inputs": [
        {
          "internalType": "address",
          "name": "to",
          "type": "address"
        },
        {
          "internalType": "uint256",
          "name": "amount",
          "type": "uint256"
        }
      ],
      "name": "transfer",
      "outputs": [
        {
          "internalType": "bool",
          "name": "",
          "type": "bool"
        }
      ],
      "stateMutability": "nonpayable",
      "type": "function"
    },
    {
      "inputs": [
        {
          "internalType": "address",
          "name": "from",
          "type": "address"
        },
        {
          "internalType": "address",
          "name": "to",
          "type": "address"
        },
        {
          "internalType": "uint256",
          "name": "amount",
          "type": "uint256"
        }
      ],
      "name": "transferFrom",
      "outputs": [
        {
          "internalType": "bool",
          "name": "",
          "type": "bool"
        }
      ],
      "stateMutability": "nonpayable",
      "type": "function"
    }
  ],
  "bytecode": "0x60806040523480156200001157600080fd5b506040516200105e3803806200105e83398101604081905262000034916200028f565b6040805180820182526004815263414d4d4f60e01b60208083019182528351808501909452600584526424414d4d4f60d81b9084015281519192916200007d91600391620001cc565b50805162000093906004906020840190620001cc565b5050600580546001600160a01b038086166001600160a01b031992831617909255600680549285169290911691909117905550620000dc81690a968163f0a57b400000620000e4565b50506200032b565b6001600160a01b0382166200013f5760405162461bcd60e51b815260206004820152601f60248201527f45524332303a206d696e7420746f20746865207a65726f206164647265737300604482015260640160405180910390fd5b8060026000828254620001539190620002c7565b90915550506001600160a01b0382166000908152602081905260408120805483929062000182908490620002c7565b90915550506040518181526001600160a01b038316906000907fddf252ad1be2c89b69c2b068fc378daa952ba7f163c4a11628f55a4df523b3ef9060200160405180910390a35050565b828054620001da90620002ee565b90600052602060002090601f016020900481019282620001fe576000855562000249565b82601f106200021957805160ff191683800117855562000249565b8280016001018555821562000249579182015b82811115620002495782518255916020019190600101906200022c565b50620002579291506200025b565b5090565b5b808211156200025757600081556001016200025c565b80516001600160a01b03811681146200028a57600080fd5b919050565b60008060408385031215620002a357600080fd5b620002ae8362000272565b9150620002be6020840162000272565b90509250929050565b60008219821115620002e957634e487b7160e01b600052601160045260246000fd5b500190565b600181811c908216806200030357607f821691505b602082108114156200032557634e487b7160e01b600052602260045260246000fd5b50919050565b610d23806200033b6000396000f3fe608060405234801561001057600080fd5b50600436106101005760003560e01c806342966c6811610097578063a457c2d711610066578063a457c2d714610220578063a9059cbb14610233578063dd62ed3e14610246578063ee99205c1461027f57600080fd5b806342966c68146101b157806370a08231146101c45780638da5cb5b146101ed57806395d89b411461021857600080fd5b806323b872dd116100d357806323b872dd14610167578063313ce5671461017a578063395093511461018957806340c10f191461019c57600080fd5b806301ffc9a71461010557806306fdde031461012d578063095ea7b31461014257806318160ddd14610155575b600080fd5b610118610113366004610afe565b610292565b60405190151581526020015b60405180910390f35b6101356102c9565b6040516101249190610b2f565b610118610150366004610ba0565b61035b565b6002545b604051908152602001610124565b610118610175366004610bca565b610373565b60405160128152602001610124565b610118610197366004610ba0565b610397565b6101af6101aa366004610ba0565b6103d6565b005b6101af6101bf366004610c06565b610445565b6101596101d2366004610c1f565b6001600160a01b031660009081526020819052604090205490565b600654610200906001600160a01b031681565b6040516001600160a01b039091168152602001610124565b6101356104a5565b61011861022e366004610ba0565b6104b4565b610118610241366004610ba0565b610546565b610159610254366004610c3a565b6001600160a01b03918216600090815260016020908152604080832093909416825291909152205490565b600554610200906001600160a01b031681565b60006001600160e01b031982166336372b0760e01b14806102c357506301ffc9a760e01b6001600160e01b03198316145b92915050565b6060600380546102d890610c6d565b80601f016020809104026020016040519081016040528092919081815260200182805461030490610c6d565b80156103515780601f1061032657610100808354040283529160200191610351565b820191906000526020600020905b81548152906001019060200180831161033457829003601f168201915b5050505050905090565b600033610369818585610554565b5060019392505050565b600033610381858285610679565b61038c85858561070b565b506001949350505050565b3360008181526001602090815260408083206001600160a01b038716845290915281205490919061036990829086906103d1908790610cbe565b610554565b6005546001600160a01b0316336001600160a01b0316146104375760405162461bcd60e51b815260206004820152601660248201527577726f6e6720636f6e7472616374206164647265737360501b60448201526064015b60405180910390fd5b61044182826108d9565b5050565b6006546001600160a01b0316331461048c5760405162461bcd60e51b815260206004820152600a60248201526937b7363c9037bbb732b960b11b604482015260640161042e565b6006546104a2906001600160a01b0316826109b8565b50565b6060600480546102d890610c6d565b3360008181526001602090815260408083206001600160a01b0387168452909152812054909190838110156105395760405162461bcd60e51b815260206004820152602560248201527f45524332303a2064656372656173656420616c6c6f77616e63652062656c6f77604482015264207a65726f60d81b606482015260840161042e565b61038c8286868403610554565b60003361036981858561070b565b6001600160a01b0383166105b65760405162461bcd60e51b8152602060048201526024808201527f45524332303a20617070726f76652066726f6d20746865207a65726f206164646044820152637265737360e01b606482015260840161042e565b6001600160a01b0382166106175760405162461bcd60e51b815260206004820152602260248201527f45524332303a20617070726f766520746f20746865207a65726f206164647265604482015261737360f01b606482015260840161042e565b6001600160a01b0383811660008181526001602090815260408083209487168084529482529182902085905590518481527f8c5be1e5ebec7d5bd14f71427d1e84f3dd0314c0f7b2291e5b200ac8c7c3b92591015b60405180910390a3505050565b6001600160a01b03838116600090815260016020908152604080832093861683529290522054600019811461070557818110156106f85760405162461bcd60e51b815260206004820152601d60248201527f45524332303a20696e73756666696369656e7420616c6c6f77616e6365000000604482015260640161042e565b6107058484848403610554565b50505050565b6001600160a01b03831661076f5760405162461bcd60e51b815260206004820152602560248201527f45524332303a207472616e736665722066726f6d20746865207a65726f206164604482015264647265737360d81b606482015260840161042e565b6001600160a01b0382166107d15760405162461bcd60e51b815260206004820152602360248201527f45524332303a207472616e7366657220746f20746865207a65726f206164647260448201526265737360e81b606482015260840161042e565b6001600160a01b038316600090815260208190526040902054818110156108495760405162461bcd60e51b815260206004820152602660248201527f45524332303a207472616e7366657220616d6f756e7420657863656564732062604482015265616c616e636560d01b606482015260840161042e565b6001600160a01b03808516600090815260208190526040808220858503905591851681529081208054849290610880908490610cbe565b92505081905550826001600160a01b0316846001600160a01b03167fddf252ad1be2c89b69c2b068fc378daa952ba7f163c4a11628f55a4df523b3ef846040516108cc91815260200190565b60405180910390a3610705565b6001600160a01b03821661092f5760405162461bcd60e51b815260206004820152601f60248201527f45524332303a206d696e7420746f20746865207a65726f206164647265737300604482015260640161042e565b80600260008282546109419190610cbe565b90915550506001600160a01b0382166000908152602081905260408120805483929061096e908490610cbe565b90915550506040518181526001600160a01b038316906000907fddf252ad1be2c89b69c2b068fc378daa952ba7f163c4a11628f55a4df523b3ef9060200160405180910390a35050565b6001600160a01b038216610a185760405162461bcd60e51b815260206004820152602160248201527f45524332303a206275726e2066726f6d20746865207a65726f206164647265736044820152607360f81b606482015260840161042e565b6001600160a01b03821660009081526020819052604090205481811015610a8c5760405162461bcd60e51b815260206004820152602260248201527f45524332303a206275726e20616d6f756e7420657863656564732062616c616e604482015261636560f01b606482015260840161042e565b6001600160a01b0383166000908152602081905260408120838303905560028054849290610abb908490610cd6565b90915550506040518281526000906001600160a01b038516907fddf252ad1be2c89b69c2b068fc378daa952ba7f163c4a11628f55a4df523b3ef9060200161066c565b600060208284031215610b1057600080fd5b81356001600160e01b031981168114610b2857600080fd5b9392505050565b600060208083528351808285015260005b81811015610b5c57858101830151858201604001528201610b40565b81811115610b6e576000604083870101525b50601f01601f1916929092016040019392505050565b80356001600160a01b0381168114610b9b57600080fd5b919050565b60008060408385031215610bb357600080fd5b610bbc83610b84565b946020939093013593505050565b600080600060608486031215610bdf57600080fd5b610be884610b84565b9250610bf660208501610b84565b9150604084013590509250925092565b600060208284031215610c1857600080fd5b5035919050565b600060208284031215610c3157600080fd5b610b2882610b84565b60008060408385031215610c4d57600080fd5b610c5683610b84565b9150610c6460208401610b84565b90509250929050565b600181811c90821680610c8157607f821691505b60208210811415610ca257634e487b7160e01b600052602260045260246000fd5b50919050565b634e487b7160e01b600052601160045260246000fd5b60008219821115610cd157610cd1610ca8565b500190565b600082821015610ce857610ce8610ca8565b50039056fea26469706673582212206bcace52d5099f563f316c8efe1133d51ab35015f485ec3dc419cac613fffd3164736f6c63430008090033",
  "linkReferences": {},
  "deployedLinkReferences": {}
}